:020000040800F2
:10000000E010002005010008331500082D14000839
:1000100031150008090200081B2F0008000000002D
:10002000000000000000000000000000331800087D
:10003000850200080000000031180008351800088B
:100040001F0100081F0100081F0100081F01000810
:100050001F0100081F0100081F0100081F01000800
:100060001F0100081F0100081F0100081F010008F0
:100070001F0100081F0100081F0100081F010008E0
:100080001F0100081F010008ED0100081F01000802
:10009000A52E00081F0100081F0100081F0100080D
:1000A0001F0100081F0100081F0100081F010008B0
:1000B0001F0100081F0100081F0100081F010008A0
:1000C0001F0100081F0100081F0100081F01000890
:1000D0001F0100081F0100081F0100081F01000880
:1000E0001F0100081F0100081F010008DFF810D0E1
:1000F00000F03EF8004800475D2F0008AFF3008095
:10010000E01000200648804706480047FEE7FEE76B
:10011000FEE7FEE7FEE7FEE7FEE7FEE7FEE7FEE7B7
:1001200099180008ED00000840EA01039B0703D07E
:1001300009E008C9121F08C0042AFAD203E011F826
:10014000013B00F8013B521EF9D27047D2B201E0E8
:1001500000F8012B491EFBD270470022F6E710B5CC
:1001600013460A4604461946FFF7F0FF204610BD25
:10017000064C074D06E0E06840F0010394E80700F4
:1001800098471034AC42F6D3FFF7B4FF0C300008A8
:100190002C30000870B58C1810F8015B15F00703BF
:1001A00001D110F8013B2A1106D110F8012B03E010
:1001B00010F8016B01F8016B5B1EF9D12B0705D418
:1001C0000023521E0DD401F8013BFAE710F8013B61
:1001D000CB1A921C03E013F8015B01F8015B521E7D
:1001E000F9D5A142D8D3002070BD000004490020F9
:1001F000086003484C3000680249088070470000DE
:100200000024014000000020FEE70020704700208D
:100210007047000010B500220549064801F030FC87
:1002200003490448403901F025FC002010BD0000BE
:100230009C0C00208C03002010B50A68014604487D
:10024000FFF772FF034801F0F9FB002010BD00002A
:100250008C0100208C030020094A10B5D2F8B82286
:10026000D2F814220AB1012010BD0A460146044802
:1002700001F006FCBDE81040014801F05FBC000041
:100280008C0300207047704770B5044600F004F9F5
:100290000546601C02D004480078044400F0FCF8D5
:1002A000401BA042FAD370BD680000202DE9F84F32
:1002B000DFF8B891002409F1040A0AF1040B23467F
:1002C0000F270BF1040EC9E00125A5402A40AA42E0
:1002D0007DD1674ED1F804C0ACEB0608B44532D0EE
:1002E00014DCBCF1030F3AD009DCBCF1000F2AD0BA
:1002F000BCF1010F1CD0BCF1020F31D11DE0BCF1EB
:10030000110F17D0BCF1120F2AD119E0B8F5881FD0
:1003100019D006DCB8F5803F15D0B8F5801F1FD185
:1003200011E0B8F5001F0ED0B8F5041F18D10AE08F
:10033000CB6815E0CB681B1D12E0CB6808330FE0DB
:10034000CB680C330CE08B682BB1012B4FF008030A
:1003500003D0456104E0042302E0056100E00023CE
:10036000FF2A01D8064601E000F104064FEA8405A1
:1003700001D9A5F12005D6F8008007FA05FC28EA86
:100380000C0803FA05F548EA0508C6F800804D6830
:10039000ED0062D5374DAE6946F00106AE61AD693C
:1003A00024F0030605F001050095334D06EB050C1E
:1003B000DCF80850A607360F07FA06F825EA080504
:1003C000DFF8B880404503D14FF0000817E044E063
:1003D000DFF8AC80404502D14FF001080FE0DFF8B4
:1003E000A480404502D14FF0020808E0DFF8988071
:1003F000404502D14FF0030801E04FF0040808FA2D
:1004000006F848EA0508CCF808804D68D9F800607D
:10041000ED034D4601D5164300E096432E604D682E
:10042000DAF80060AD03554601D5164300E0964367
:100430002E604D68DBF80060ED025D4601D5164385
:1004400000E096432E604D68DEF80060AD02754610
:1004500001D5164300E096432E60641C0D682A46C1
:10046000E5407FF431AFBDE8F88F000000040140A3
:10047000000011100010024000000140000801407F
:10048000000C014000100140001401400AB101615C
:1004900070470904FBE700000148806870470000CE
:1004A000680000200248816802781144816070472A
:1004B00068000020074810B5016841F01001016094
:1004C000032000F075F8002000F006F800F024F892
:1004D000002010BD0020024070B50D4D04464FF4C1
:1004E0007A712878B1FBF0F00A490968B1FBF0F0A5
:1004F00000F088FF48B9102C07D200222146501E78
:1005000000F036F800206C6070BD012070BD000066
:1005100068000020740000200C4808B5816941F093
:1005200001018161816901F001010091C16941F01E
:100530008051C161C06900F080500090044841685A
:1005400021F0E06141F00071416008BD00100240FF
:1005500000000140002809DB00F01F02012191404A
:100560004009800000F1E020C0F800117047000051
:10057000F0B40E4B1B680C46C3F30223C3F107050E
:10058000042D00D90425191D072901D2002300E0FC
:10059000DB1E012606FA05F1491E214099409E40C6
:1005A000761E16403143F0BC02F0B8BC0CED00E002
:1005B000064900F0070208684FF6FF03184040EABA
:1005C0000220034A10430860704700000CED00E071
:1005D0000000FA0510B50C0607D501F0070101EB84
:1005E000810100EBC100283005E001EB810100EB47
:1005F000C10000F5B47099B232B1012202730181D9
:10060000190C4181002010BD00220273C180F9E75E
:10061000704701EB810200EBC202D0F8E802D26B16
:1006200001F03BBC01EB810200EBC202D0F8E80212
:10063000D2F87C2101F094BC70B504460B0601F0A1
:10064000070000EB800104EBC1014FF001024FF005
:10065000000503D581F82920283103E081F869518C
:1006600001F5B471087094F8A802012808D084F844
:10067000A822206802F0B4F884F8A852002070BDC7
:10068000022070BD70B5044601F00F006268904210
:1006900001D9012070BD0B0601F0070000EB8001BD
:1006A00004EBC1014FF001024FF0000503D581F8C2
:1006B0002920283103E081F8695101F5B4718D706A
:1006C000087094F8A802012808D084F8A8222068AD
:1006D00002F023F984F8A852002070BD022070BDFA
:1006E0002DE9F05F04685FEA424C0B788D69B4F83D
:1006F00050C04FF000064BF68F7948F2800A48F65A
:100700008F7B48F2C00E4FF480672AD54FF0020865
:1007100008EBC308C44407EB4C07E45BC4F30904CB
:10072000A54203D32D1B8D6101D00BE08E610668BD
:1007300036F8235005EA090585F4005545EA0A050F
:1007400026F82350520609D50D78036833F8252082
:1007500002EA0B0242EA0E0223F8252084B30A893A
:1007600029E04FF0060808EBC308C44407EB4C0728
:10077000E45BC4F30904A54203D32D1B8D6101D0B2
:100780000BE08E61066836F8235005EA090585F40A
:10079000005545EA0A0526F82350520609D40B787D
:1007A000056835F8232002EA0B0242EA0E0225F81A
:1007B00023202CB14A8949690068234602F07CFB5A
:1007C0002046BDE8F09F2DE9F05F05460C46006825
:1007D0005FEA426C16462278A369B0F850C04FF029
:1007E000000148F68F774CF280094FF6FF7B4FF4FB
:1007F000004E4FF4806A6CD54FF0020808EBC20837
:10080000E0440AEB480C30F80C00C0F309008342C6
:1008100011D91B1AA3610FD0730407D52E6836F8BF
:1008200022303B4043EA090326F8223094F8242082
:10083000012A08D0C6E0A16111462846FFF7E9FE6B
:1008400070046CD4BEE0626902446261E2690244F1
:10085000E2612369226A9A4202D31846111A03E020
:1008600084F824100AB110462162617811B101297F
:1008700023D02BE02968B1F850201144227801EBF5
:10088000021101F2044148B13E280FD84208C307C3
:1008900000D0521C0BEA82220A8017E00A8822F458
:1008A000F8420A800A8842F40042F5E74209C3068A
:1008B00000D1521E4EEA8222EEE72968B1F850209C
:1008C0001144227801EB0211A1F8040483B22289B9
:1008D00074E04FF0060808EBC208E0440AEB480C4D
:1008E00030F80C00C0F30900834211D31B1AA36136
:1008F0000FD0730407D42E6836F822303B4043EA09
:10090000090326F8223094F82420012A11D059E056
:10091000A16111462846FFF77CFE700452D422786C
:10092000296831F82200384040EA090021F8220005
:1009300048E0626902446261E2690244E26123695B
:10094000226A9A4203D31846111A216204E00AB1BE
:100950001046216284F824106278296812B1012AB5
:1009600022D029E0B1F850201144227801EB021185
:1009700001F20C4148B13E280FD84208C30700D00D
:10098000521C0BEA82220A8016E00A8822F4F842FE
:100990000A800A8842F40042F5E74209C30600D102
:1009A000521E4EEA8222EEE7B1F85020114422781E
:1009B00001EB0211A1F80C04628983B26169286815
:1009C00002F098FA2278296831F8220048F6BF73BD
:1009D000184080F0300048F28003184321F82200CC
:1009E0000020BDE8F09F01F0070101EB810100EB61
:1009F000C100D0F8840170472DE9F04104460F068C
:100A000001F0070000EB800104EBC1014FF001068B
:100A10004FF0000503D581F82960283103E081F803
:100A2000695101F5B47108700A61CB704A7802B15E
:100A3000C881022B00D10D7194F8A802012809D0B9
:100A400084F8A862206801F09DFD284684F8A85229
:100A5000BDE8F0810220FBE770B50C4601F0070508
:100A600005EB850100EBC101C1E95F230022C1F85C
:100A7000842181F8692181F8685101F5B471620718
:100A8000006801F09FFF002070BD70B504460D4660
:100A900001F007006168884201D9012070BD290674
:100AA0004FF000064FF0010207D500EB800104EB88
:100AB000C10181F82920283107E005EB850104EB0D
:100AC000C10181F8696101F5B4718A70087094F808
:100AD000A802012807D084F8A822206801F059FF55
:100AE000680702D006E0022070BD04F52C71206872
:100AF00001F011FF84F8A862002070BD70B50C46AB
:100B000001F0070505EB850100EBC101C1E90F23E9
:100B1000012281F84C208B6400234B6481F829204A
:100B200001F8285F6207006801F04CFF002070BDEB
:100B30001FB50446006802F0BBF9000402D5204648
:100B400000F0F8FC206802F0B3F940050CD52068ED
:100B500030F8441F21F480610180204600F01EF926
:100B60000021204600F035F9206802F0A1F9400488
:100B700005D5206830F8441F21F4804101802068A9
:100B800002F096F9800405D5206830F8441F21F45E
:100B900000510180206802F08BF9C00414D5206850
:100BA00030F8401F21F004010180206830F8401F18
:100BB00021F008010180204600F003F9206830F898
:100BC000441F21F480510180206802F071F9000572
:100BD0003ED522680020694632F8203021F81030D6
:100BE000401CC0B20828F7D332F8400F40F0010093
:100BF0001080206830F8402F22F001020280206827
:100C0000B0F844205205FBD530F8442F22F480621E
:100C100002800020236831F8102023F82020401C97
:100C2000C0B20828F6D3206830F8401F41F0080110
:100C30000180206830F8441F21F4006101802068A1
:100C400030F8401F41F004010180204600F0F6F822
:100C5000206802F02DF9800508D5206830F8441F7F
:100C600021F400710180204600F0AFF8206802F006
:100C70001FF9C00505D5206830F8441F21F48071A4
:100C800001801FBD2DE9F04186B0040004D094F826
:100C9000A902002520B108E0012006B0BDE8F081DE
:100CA00084F8A852204600F05BF8032084F8A902DB
:100CB000206801F029FE04F11001142288466846DC
:100CC000FFF732FA94E80F0001F088FD0226D0BB4E
:100CD0000021206802F006F9002001270FE000BF84
:100CE00000EB800104EBC10181F8297001F8280FA5
:100CF000C881CD700D614D61401CC0B28D616168CD
:100D00008142EDD8002011E000EB800104EBC1012D
:100D100081F8695181F8680181F86B51C1F8785107
:100D2000C1F87C51401CC0B2C1F880516168814259
:100D3000EAD8142241466846FFF7F6F994E80F0016
:100D400001F0D9FD10B184F8A962A5E784F8245018
:100D500084F8A972206801F0CCFD00209DE7000016
:100D600008B500680B49884212D10B48C16941F4AB
:100D70000001C161C069002200F40000009011462A
:100D80001420FFF7F5FBBDE808401420FFF7E2BB95
:100D900008BD0000005C00400010024070B5044631
:100DA00080680125022801D0FFF76DFA2946D4F8A2
:100DB000E80201F0BEF9D4F8E802BDE8704001F0A5
:100DC0007AB9D0F8E80201F09EB9D0F8E80201F053
:100DD000A4B910B5044690F8A80201280BD0012050
:100DE00084F8A80284F82410206802F07DF800201E
:100DF00084F8A80210BD022010BDD0F8E82200F54A
:100E00002C71104601F0A1B910B5044690F8A80263
:100E1000012810D0012084F8A802206802F039F8D7
:100E200001212046FFF7F4FB206801F060FD00205F
:100E300084F8A80210BD022010BD000010B50446C1
:100E4000D0F8E80201F0C0F9A069002804D00348F6
:100E5000016841F00601016010BD000010ED00E0E6
:100E60002DE9F84305460078354CC00754D0E069B9
:100E70000026C00008D4E06940F08050E061E069DD
:100E8000012600F0805000902E480168C90512D458
:100E90000168804641F480710160FFF7FDFA074662
:100EA00005E000BFFFF7F8FAC01B642823D8D8F884
:100EB0000000C005F6D5206A10F4407021D0A98842
:100EC00001F4407181421CD0206A1F49012220F4A4
:100ED00040700A6000220A602062C00711D0FFF74C
:100EE000DBFA074641F2883808E000BFFFF7D4FA82
:100EF000C11B414502D90320BDE8F883206A800761
:100F0000F4D5206A696820F44070084320621EB15D
:100F1000E06920F08050E0612878800705D560689E
:100F2000A96820F44040084360602878C00605D5D1
:100F30006068E96820F48000084360600020DBE717
:100F40000010024000700040400442422DE9F0478A
:100F50000F46050061D0434E306800F00700B842EC
:100F600009D2306820F0070038433060306800F064
:100F70000700B84251D128683B4C810712D5400781
:100F800003D5606840F4E06060602878000703D50E
:100F9000606840F4605060606068A96820F0F0000C
:100FA000084360602878C00728D06868012810D0FE
:100FB0002168022810D0890700292EDA616821F003
:100FC000030101436160FFF767FA804641F2883907
:100FD0000DE021688903EFE78901EDE7FFF75CFA8F
:100FE000A0EB0801494502D90320BDE8F0876068FD
:100FF000696800F00C00B0EB810FEFD1306800F0B1
:101000000700B8420BD9306820F007003843306041
:10101000306800F00700B84201D00120E5E72878E9
:10102000400705D56068E96820F4E0600843606027
:101030002878000706D56068296920F4605040EAE6
:10104000C100606000F018F86168084AC1F303113C
:10105000515CC8400649086006480068FFF73CFA42
:101060000020C2E70020024000100240FC2F0008D0
:10107000740000206C00002012A185B00FC98DE81B
:101080000F0014A0144A006804905168134801F03E
:101090000C03042B10D0082B0ED1C1F38343C903DA
:1010A0001DF803000AD5516804AAC1F34041515C00
:1010B0000A4A5043B0FBF1F005B070470849484375
:1010C000FAE7000002030405060708090A0B0C0DE5
:1010D0000E0F1010010200000010024000127A00F2
:1010E00000093D002DE9F84F040070D02078C04D74
:1010F000C00749D06868C0F38100012807D068683C
:10110000C0F38100022809D16868C00306D52868A9
:10111000800339D560680028E7D035E06068B0F515
:10112000803F0BD010B1B0F5A02F11D0286820F46B
:1011300080302860286820F4802002E0286840F48D
:1011400080302860606890B1FFF7A6F906460AE093
:10115000286840F480202860F0E700BFFFF79CF982
:10116000801B642873D828688003F7D50CE0FFF74C
:1011700093F9064605E000BFFFF78EF9801B64284F
:10118000F0D828688003F7D420789A4E80074FF073
:1011900001094FF0000839D5686810F00C0F07D02E
:1011A0006868C0F38100022809D16868C00306D4CA
:1011B0002868800714D52069012808D110E020692B
:1011C000B0B1C6F80090FFF767F9074605E00AE1FD
:1011D000FFF762F9C01B0228C4D828688007F7D53A
:1011E0002868616920F0F80040EAC10028600DE03D
:1011F000C6F80080FFF750F9074604E0FFF74CF906
:10120000C01B022823D828688007F7D4207800075D
:101210002CD57948A169D9B1C0F80090FFF73CF905
:10122000074604E0FFF738F9C01B02280FD8686AA8
:101230008007F7D571484FF4FA510068B0FBF1F020
:10124000009000BF0098411E0091FAD20EE080E0AD
:10125000C0F80080FFF720F9074604E0FFF71CF90B
:10126000C01B022875D8686A8007F7D42078400729
:1012700060D5E8690027C00008D4E86940F08050D4
:10128000E861E869012700F0805000905C4801683F
:10129000C90513D40168834641F480710160FFF7EA
:1012A000FBF8824606E000BFFFF7F6F8A0EB0A0065
:1012B00064284ED8DBF80000C005F5D5E0680128A9
:1012C0000AD008B1052813D0286A20F0010028624E
:1012D000286A20F0040002E0286A40F00100286239
:1012E000E06841F2883B98B1FFF7D6F882460BE000
:1012F000286A40F004002862EEE700BFFFF7CCF850
:10130000A0EB0A0159455AD8286A8007F6D50CE0A7
:10131000FFF7C2F8824605E0FFF7BEF8A0EB0A012E
:1013200059454CD8286A8007F6D41FB1E86920F0E7
:101330008050E861E06988B36968C1F381010229DE
:1013400044D00228C6F8608004D0FFF7A5F8044610
:1013500038E034E0FFF7A0F8074604E0FFF79CF818
:10136000C01B02282BD828688001F7D4206AB0F56A
:10137000803F05D16868A16820F4003008436860A8
:10138000D4E908010843696821F4741108436860CE
:10139000C6F86090FFF780F8044606E025E000BF3D
:1013A000FFF77AF8001B022809D828688001F7D5D2
:1013B0001BE000BFFFF770F8001B022802D90320D2
:1013C000BDE8F88F28688001F4D40EE00128F7D03A
:1013D0006868226A00F48031914204D1616A00F4A5
:1013E0007010884201D00120EAE70020E8E7000001
:1013F000001002400000424280044242740000207B
:101400000070004010B5401EB0F1807F01D3012074
:1014100010BD4FF0E02460610F21601701F07EFDE8
:101420000020A06107202061002010BDFEE7000021
:10143000F0B500230A24302537261F4611E000BFEF
:10144000B4EB107F02D905EB107C01E006EB107CB9
:1014500001F813C001EB430C00015B1C8CF8017018
:10146000DBB29342ECD3F0BD10B586B00020029001
:101470001848816941F004018161816901F004012A
:101480000491816941F008018161816901F00801DD
:101490000491816941F01001816180690E4C00F076
:1014A000100004904FF44070009011200190022031
:1014B000039069462046FEF7F9FE012211022046FC
:1014C000FEF7E4FF012251022046FEF7DFFF06B0DF
:1014D00010BD000000100240000C014010B50022B9
:1014E0000F49104800F0B2FC08B1FEF7CCFE0E49DF
:1014F0000C4800F08FFE08B1FEF7C5FE0B49094805
:1015000000F0B0FA08B1FEF7BEFE064800F0D8FEC3
:10151000002803D0BDE81040FEF7B5BE10BD0000A6
:10152000080000208C0300205401002058000020F7
:10153000FEE770472DE9F84F044640F68F7B48F6EA
:101540000F7A4FF002094FF4806868E1B0F8441058
:1015500011F00F0638D030F8267039047ED530F8F7
:10156000261001EA0B0141F0800120F8261006EB5D
:10157000860004EBC00595F8740105F5B4750028E4
:101580006DD0E87802286BD02A78216831F82200E3
:1015900048F68F73184048F2C003184321F8220020
:1015A0002978206830F82120B0F8503052047DD5D9
:1015B00009EBC1015A1808EB4201415A8905890D0E
:1015C000009174D02A89D2E0C9062DD4018801EA9D
:1015D0000A0141F400410180206804F12805B0F8B7
:1015E00050302A7809EBC2015A1808EB4201405AE0
:1015F000C0F309006064E16B0844E0630021204609
:10160000FFF707F894F8240000289ED0A869002866
:101610009BD194F8240040F080012068A0F84C1081
:10162000002084F82400FAE0018804F5B4750A0566
:1016300021D5B0F850302A78062101EBC2015A18A2
:1016400008EB4201405A04F52C71C0F30903EB6129
:10165000EA88206801F030FC216802E0A2E062E044
:1016600072E0088800EA0B0040F080000880204605
:10167000FFF7C3FBD3E00904D5D5018801EA0B01CC
:1016800041F0800101802068B0F850202B780621BD
:1016900001EBC3010A4408EB4201405A83059B0D4C
:1016A000EB6110D0696971B1EA8801E053E051E063
:1016B000206801F001FCE96968690844686100215B
:1016C0002046FEF7AFFF2068B0F8501008442969A3
:1016D00000F20C4051B13E2910D84A08C90700D089
:1016E000521C4FF6FF7101EA82210FE0018821F4BC
:1016F000F8410180018841F4004107E04A09C90628
:1017000000D1521E4FF4004141EA8221018020683D
:1017100001884BF68F72114081F4405148F28002EB
:10172000114301807BE02068B0F850102A7806232E
:1017300003EBC2020A4408EB4201415A8905890DB4
:10174000009118D0EA8812E03A4629462046FEF772
:10175000C7FF00900FE0062202EBC1015A1808EB08
:101760004201415A8905890D009104D06A8969694D
:10177000009B01F0A1FBE96900980844E8616969F0
:10178000009808446861A86918B1296900988142E5
:1017900004D929782046FEF745FF03E02946206852
:1017A00001F010F938063AD5226806EB860004EB02
:1017B000C00132F8260000EA0A0040F4004022F896
:1017C000260091F82B002831022801D1F80522D4F7
:1017D0002268B2F850300D7809EBC500034408EBDD
:1017E0004300105A8A69C0F3090082420CD9121AC8
:1017F0008A610BD04A6902444A61CA691044C861CF
:10180000206801F0DFF80AE000208861E9B2204694
:10181000FEF7FFFE03E03A462046FEF7D4FF2068BD
:10182000B0F8441009043FF591AE0020BDE8F88FF0
:1018300070477047FEF736BE30B593B02821684632
:10184000FEF78BFC14210AA8FEF787FC0024012078
:101850000F9410941194010412948DE813000490D5
:101860000005CDE90810022507956846FFF73AFC08
:101870000F20CDE90A056802CDE90C4001210AA834
:101880000E94FFF763FB10200F90800412900FA8B6
:10189000FFF7E6FA13B030BD70472DE9F041D0F8FC
:1018A000C032D0F8B822CAB101EB810500EB850443
:1018B0000026E7693FB103EBC5039B6BB7FBF3F56C
:1018C00003FB157323B1C2F814620020BDE8F08158
:1018D00000231A46E66100F080FCF6E70220F5E7F7
:1018E00070B50546D0F8B84200F07BFBC4F80C0296
:1018F000D5F8B80248B1D5F8BC12D4F80402CA68C9
:1019000004F503719047002070BD022070BD70B5D2
:1019100004460026812100F0B7FA00250121204667
:10192000E56200F0B1FA82212046C4F86C5100F063
:10193000ABFA2564D4F8B80248B1D4F8BC0204F577
:101940002E7440688047206800F017FE25603046FE
:1019500070BD10B5D0E9AE4159B194F80002FF282E
:1019600007D08B6894F8012221469847FF2084F81D
:101970000002002010BD00000A21018000487047CD
:101980007C0000204321018000487047CC000020EB
:1019900043210180004870478800002043210180D6
:1019A00000487047100100202DE9F0410446002650
:1019B000007C4FF40077012590B34023022281215F
:1019C000204600F063FB4023E5620222012120460D
:1019D00000F05CFB0823032282212046C4F86C51EE
:1019E00000F054FB4FF40770256400F0C7FDC4F805
:1019F000B802F8B10546D4F8BC0200688047002060
:101A0000C5F81402C5F81802207CD5F8042298B154
:101A100040230121204600F045FB3046BDE8F0811F
:101A2000FFE73B4602228121204600F02FFB3B4688
:101A3000E562CAE70126F0E73B46EAE710B5D0F8D1
:101A4000B81269B1027C002AD1F8042205D04023E3
:101A5000012100F027FB002010BD4FF40073F7E7D1
:101A6000022010BD02460220002902D00020C2F848
:101A7000BC127047D0F8B802C0F8041200207047BA
:101A8000D0F8B802C0F81022C0F808120020704741
:101A90002DE9FC410546D0F8B87200208DF8000011
:101AA000ADF80400064608780C4610F0600121D01D
:101AB00020293BD1E288AAB10006607807D5D5F885
:101AC000BC128B6839469847E288394626E087F889
:101AD0000002A07987F80102E2883946284600F022
:101AE0006AF828E0D5F8BC12607800228B6821469D
:101AF000984720E0607820B10A2809D00B2815D13A
:101B000010E095F89C02032810D1022201A905E0FB
:101B100095F89C02032809D101226946284600F065
:101B200064F808E095F89C02032804D02146284672
:101B300000F036F802263046BDE8FC8110B5D0F83A
:101B4000B812A1B1D1F814220AB1012010BD0122AE
:101B5000C1F81422D1F810220263B1F8102293B216
:101B6000D1F80822812100F038FB002010BD0220AE
:101B700010BD10B5D0F8B42252689047002010BDB7
:101B8000134610B50A46002100F08CFA002010BD63
:101B9000134610B50A46002100F01FFB002010BDBF
:101BA00010B50446802100F0FDFA2046BDE8104043
:101BB000002100F0F7BA10B50323C0F85C21C0F88B
:101BC0009432C0F8602113460A46002100F06AFAF8
:101BD000002010BD10B505210023C0F894121A464C
:101BE000194600F05FFA002010BD10B50223C26153
:101BF000C0F89432026213460A46002100F0EDFA62
:101C0000002010BD10B504210023C0F894121A461C
:101C1000194600F0E2FA002010BD000010B50A4697
:101C2000024903A000F0E2F8004810BD5C0B002060
:101C300043444320436F6E666967000012200880AA
:101C4000004870472800002010B50A46024903A04A
:101C500000F0CCF8004810BD5C0B0020434443204A
:101C6000496E746572666163650000000420088037
:101C7000004870472400002010B50A46024903A01E
:101C800000F0B4F8004810BD5C0B002053544D69BF
:101C900063726F656C656374726F6E696373000065
:101CA00010B50A46024903A000F0A0F8004810BD94
:101CB0005C0B002053544D333220566972747561A9
:101CC0006C20436F6D506F727400000010B51A20C5
:101CD00008800A480168001D0468001D0068081893
:101CE00009D008220649FFF7A3FB05490422103159
:101CF0002046FFF79DFB0248801E10BDE8F7FF1F3E
:101D00003E000020F8B504460020ADF800004888E9
:101D10000D46010A082948D2DFE801F047040917F7
:101D200047473C45D4F8B012207C0A6819E0207C73
:101D300002260028D4F8B40205D0C16A6846884754
:101D4000014646703EE0816AF8E7C0B206282CD210
:101D5000DFE800F0030A1014181CD4F8B00242683F
:101D600005E0694690471CE0D4F8B0028268E2B111
:101D7000207CF6E7D4F8B002C268F8E7D4F8B002E5
:101D80000269F4E7D4F8B0024269F0E7D4F8B0028F
:101D90008269ECE7207C40B9D4F8B402416B684614
:101DA000884701460EE0207C20B129462046FFF7F7
:101DB000F7FEF8BDD4F8B402016B684688470146C7
:101DC00007204870BDF8000048B1EA8852B182424D
:101DD00000D90246ADF800202046FFF706FFE8884C
:101DE0000028E6D12046FFF70DFFF8BD70B50023AF
:101DF00000281ED00446002502E06D1CEDB2641CD4
:101E00002678002EF9D1022404EB450414801278C0
:101E1000CA545B1C0322CA5400245B1C06E0CA544B
:101E20005B1CDAB28C54521CD3B2401C0278002ADC
:101E3000F5D170BD01004FF0000004D0012901D0A0
:101E4000022901D0022070470120704710B580B1EF
:101E5000D0F8B43213B10023C0F8B43209B1C0F8DD
:101E6000B012012180F89C12027000F0BFF800202F
:101E700010BD022010BD10B5D0F8C002FEF702FC64
:101E8000BDE81040FFF7D6BF10B5D0F8C002FEF78E
:101E9000D3FBBDE81040FFF7CDBF2DE9F041174659
:101EA000044651B1D4F8B40242691AB194F89C02C4
:101EB000032851D00220BDE8F081D4F894320025E7
:101EC00004F11400022B03D0042B3AD0C3B33CE03E
:101ED000D0E903639E4207D9F11AC1608AB239463C
:101EE0002046FFF755FE12E08068B0FBF3F103FBDC
:101EF000110199B9984211D3D4F8981288420DD2A1
:101F0000002211462046FFF743FEC4F898520023F2
:101F10001A461946204600F0C5F816E0D4F8B40277
:101F2000C16829B194F89C02032801D12046884752
:101F30008021204600F036F92046FFF74BFE04E0F2
:101F4000FFE78021204600F02DF994F8A002012837
:101F500004D184F8A05201E0204690470020AAE76F
:101F600070B51546044649B1D4F8B40282691AB175
:101F700094F89C02032830D0022070BDD4F894124B
:101F800004F5AA70032902D005291ED027E0D0E964
:101F900003218A420BD9531AC3600846834200D3F7
:101FA00003469AB229462046FFF7EAFD17E0D4F827
:101FB000B402016929B194F89C02032801D120469A
:101FC00088472046FFF71EFE09E000200146C4F8BE
:101FD0009402204600F0E6F801E0204690470020F9
:101FE00070BDD0F8C002FEF7FEBC000010B504467C
:101FF0001C481D49C0F8E842C4F8C002016008212D
:1020000041600221816000218161C1610162FEF7AE
:1020100039FE08B1FEF737F90022D4F8C0021823C0
:10202000114604F53074FEF7D5FA582300228021BA
:102030002068FEF7CFFAC023002281212068FEF736
:10204000C9FA4FF48873002201212068FEF7C2FA12
:102050004FF48073002282212068FEF7BBFA002033
:1020600010BD000070080020005C00400A0601F06E
:102070007F01D0F8C00201EB810100EBC10002D565
:1020800090F82A00704790F86A01704710B51C4616
:102090001346D0F8C0022246FEF7AEFCBDE8104061
:1020A000FFF7C8BE10B5D0F8C002FEF7D5FCBDE8FA
:1020B0001040FFF7BFBE70B5002204464023114612
:1020C000FFF7E4FF40260125C4F86461334600228F
:1020D00080212046C4F85851FFF7D8FF6662A561F9
:1020E00084F89C520020C4F894026060C4F8A402F2
:1020F000D4F8B80228B1D4F8B402002142682046CE
:102100009047002070BD90F89C12042903D190F8EC
:102110009D1280F89C120020704710B590F89C1218
:10212000032904D1D0F8B412C96901B1884700204D
:1021300010BD01740020704710B5D0F8C002FEF742
:1021400048FEBDE81040FFF775BE70B5044600F5C7
:102150002A70054600F04AF80120C4F89402B4F849
:10216000AE02C4F8980294F8A80210F01F010AD039
:1021700001290DD0022910D000F08001204600F086
:1021800011F8002070BD2946204600F09EF8F8E7BF
:102190002946204600F0CAF9F3E72946204600F018
:1021A0001DF9EEE710B5D0F8C002FEF76EFCBDE8F1
:1021B0001040FFF73FBE10B5D0F8C002FEF724FE76
:1021C000BDE81040FFF736BE90F89C1280F89D12D3
:1021D000042180F89C120020704710B5D0F8C0028E
:1021E000FEF78CFCBDE81040FFF724BE0A780270B1
:1021F0004A7842708A78CB7802EB032242800A79CF
:102200004B7902EB032282808A79C97902EB0121A2
:10221000C18070470246002011B1C2F8B412704765
:102220000220704710B5D0F8B42202241AB1126807
:10223000904700B90024204610BD000070B50E463E
:102240001E4D897804462970012931D894F89C02E2
:1022500002280BD003280FD031462046FFF7A0FC00
:1022600029782046BDE87040FFF783BCD9B1032030
:10227000616084F89C0209E071B16068884212D004
:10228000C1B22046FFF775FC297861602046FFF750
:10229000C9FF02280CD006E0022084F89C022046E8
:1022A0006160FFF766FC2046BDE87040FFF7AABCFE
:1022B00031462046BDE87040FFF772BC7800002030
:1022C00010B5FFF778FF002010BD2DE9F0410A7826
:1022D000002612F0600208D0202A01D0402A70D1D6
:1022E000D0F8B422926890476DE04B780022012527
:1022F0000A2B66D2DFE803F0405D65576508056587
:102300002C29FFF7FFFC5EE004468888D8B9C8880E
:10231000C8B94888802816D200F07F0794F89C023C
:10232000032810D084F89E7239462046FFF704FF38
:102330002046FFF767FC1FB1022084F89C0242E0B0
:1023400084F89C523FE020463BE0FFF777FF3AE0FD
:10235000CB88012B35D190F89C32012B04D0022B75
:1023600002D0032B2DD104E08260012200F108018C
:1023700016E00122011D13E090F89C22012A03D0EF
:10238000022A01D0032A1CD1CA88022A19D1C560A9
:10239000D0F8A41209B10321C160022200F10C019E
:1023A000FFF723FC0FE0498801290CD1C0F8A452A3
:1023B00011E090F89C32012B08D0022B06D0032BA1
:1023C00004D0FFF7EDFB3046BDE8F08149880129D4
:1023D000F9D1C0F8A422FFF715FCF4E72DE9F0418C
:1023E0000A46044610780027097910F060030AD0E5
:1023F000202B01D0402B50D1D4F8B4021146836871
:10240000204698478FE0C0F34110012806D050784D
:10241000D0B301282AD003283FD107E0D4F8B40272
:10242000114683682046BDE8F041184794F89C02A5
:10243000022802D0032872D10AE071B380296ED03D
:102440002046FFF7AFFE80212046FFF7ABFE6AE093
:10245000508838B931B1802904D0D08810B92046CD
:10246000FFF7A0FE2046FFF7CDFB5CE094F89C024E
:102470000228E2D0032852D1508898BB4806F1D0F8
:102480002046FFF7F8FCEDE7FFE794F89C020026F2
:10249000022803D0032842D112E040E009B180298C
:1024A0003DD1080601F07F0000EB800004EB8001C5
:1024B00001D5143101E001F5AA7102220E602AE073
:1024C000080601F00F0000EB800004EB80000AD545
:1024D000806920B301F07F0000EB800004EB8005F1
:1024E00014350BE01FE0D0F85801C0B101F07F00B7
:1024F00000EB800004EB800505F5AA7541B1802949
:1025000006D02046FFF7B2FD10B10120286000E0A0
:102510002E60022229462046FFF767FB03E01146A2
:102520002046FFF73DFB3846BDE8F08170B5054613
:1025300008780C4610F0600003D0202801D0402815
:1025400016D195F89C02012803D0022801D0032857
:102550000ED1207901280BD8D5F8B402826828461C
:102560009047E188014306D12846FFF74BFB02E084
:102570002846FFF715FB002070BD704700487047E4
:10258000500600202DE9F0470C78002630F8243062
:1025900048F68F121340CA78002A7DD0012A7CD0D9
:1025A000022A02D0032A7FD0012648F28002134378
:1025B00020F824300D7830F8254048F68F731C4001
:1025C0002C43144320F825400D7B48F2C00C48F6FC
:1025D000BF744CF280074BF68F79EDB391F8008011
:1025E000C24630F8285048F280181D4045EA0805D8
:1025F00020F82A50B0F8505091F80080054405EBBF
:102600000815B1F8088028F00108A5F80084B0F892
:10261000505091F80080054405EB0815B1F80A8088
:1026200028F00108A5F808844D78002D0D7830F8C1
:1026300025804FEA48487DD0B8F1000F07DA30F81E
:10264000258008EA030848EA070820F825800F7863
:1026500030F827506D0600E02CE006D530F8275002
:102660001D4045EA0C0520F82750CB780D78012B4A
:1026700030F8253003EA040301D083F0200313432C
:1026800020F825300B7830F8231001EA09011143B6
:1026900020F82310304602E003E008E004E0BDE843
:1026A000F08743F4007380E743F4C0637DE743F4AD
:1026B00080637AE74D782DB3B0F850500F78054419
:1026C00005EB0715CF8827F00107A5F800740F78F0
:1026D00030F827506D0606D530F827501D4045EAE2
:1026E0000C0520F82750CB78012B06D00B7830F85A
:1026F0002310214081F02001C9E70B7830F8231026
:102700002140C4E7B0F850400D78044404EB0514B0
:10271000CD8825F00105A4F80854B0F850400D7894
:10272000044404EB05140D6904F20C4475B13E2D0C
:1027300014D800E030E04FEA550CED0701D00CF161
:10274000010C4FF6FF7505EA8C2511E0258825F46C
:10275000F8452580258845F4004509E04FEA551CD9
:10276000ED0601D1ACF1010C4FF4004545EA8C2592
:1027700025800D7830F82540640405D530F82540D3
:102780001C403C4320F825400B7830F8231001EA28
:10279000090181F440517AE7B8F1000F07DA30F807
:1027A000258008EA030848EA070820F825800F7802
:1027B00030F827506D0606D530F827501D4045EA01
:1027C0000C0520F827500D7830F8253003EA09036E
:1027D00083F44053134320F825308EE700207047E0
:1027E0002DE9F04391F80C804F780A7848F6BF7CC9
:1027F0004BF68F7948F2800348F2C0054CF2800610
:1028000048F68F74B8F1000F28D0002F30F82270EE
:102810004FEA474748D0002F05DA30F822702740AA
:10282000374320F822700A7830F822707F0605D5E9
:1028300030F8227027402F4320F822700D7830F8AE
:1028400025202240324320F825200C7830F824201F
:1028500002EA0C021A4320F824201AE07FB130F873
:102860002260760605D530F8226026402E4320F8F7
:1028700022600A7830F8221001EA0C010EE030F8EC
:1028800022506D0405D530F822502540354320F8FC
:1028900022500A7830F8221001EA0901194320F881
:1028A00022100020BDE8F083002F05DA30F82270F6
:1028B0002740374320F822700A7830F822607606E5
:1028C00005D530F8226026402E4320F822600E788D
:1028D00030F8262022402A4320F826200C7830F8B1
:1028E000242002EA09021A4320F82420C1E700202C
:1028F000704700207047012120F8401F002101800F
:10290000818001820846704730F8401F21F43F4122
:102910000180002070470020704730B50A7BB2BBB1
:102920004A7848F68F7548F28004C2B10B7830F8C7
:102930002320520607D530F823202A4048F2C0054C
:102940002A4320F82320CA78012A20D00A7830F8B8
:10295000221048F6BF73194081F0200114E00A7874
:1029600030F822305B0407D530F822302B404CF28F
:1029700080052B4320F822300A7830F822104BF6DD
:102980008F73194081F44051214320F82210002018
:1029900030BD10B54A780978002A48F2800330F833
:1029A000212005D048F6BF74224082F0100204E0D6
:1029B0004BF68F74224082F480521A4320F8212073
:1029C000002010BD2DE9F04F0D464A78097B0446E2
:1029D0004FF0000948F68F7A48F2800B4FF6FF77E8
:1029E0004FF40048012A09D000297DD0E878022858
:1029F0007BD001287AD00120BDE8F08FAE6928692C
:102A0000864200D9064681B1E97802291CD028788F
:102A100034F820104906B4F85010214401EB00109E
:102A200070D5A0F80C646A8928E1B3B2EA88204620
:102A3000696900F05FFAB4F850002978204400EB8F
:102A40000110A0F8046435E1296A814276D9297819
:102A500034F8210048F2801200EA0A00104324F8FA
:102A60002100286A801B2862287834F82010490643
:102A7000697876D511B1012921D027E0B4F850103A
:102A8000214401EB001000F20C404EB13E2E0FD855
:102A90007108F20700D0491C07EA8121018015E086
:102AA000018821F4F8410180018841F40041F5E7F3
:102AB0007109F20600D1491E48EA8121EEE7B4F817
:102AC0005020111901EB0010A0F80C646A89B3B210
:102AD0002046696900F00EFA686930446861296926
:102AE000286A884206D902E0EDE00DE178E1801B1A
:102AF000286202E00646C5F82090687818B10128DF
:102B000024D02BE0B7E0B4F850002978204400EB43
:102B1000011000F204404EB13E2E10D87108F207A9
:102B200000D0491C07EA8121018017E0018821F4C7
:102B3000F8410180018841F40041F5E786E0710920
:102B4000F20600D1491E48EA8121EDE7B4F85000B1
:102B50002978204400EB0110A0F804642A896FE072
:102B6000FFE711B1012921D027E0B4F8501021442A
:102B700001EB001000F204404EB13E2E0FD8710858
:102B8000F20700D0491C07EA8121018015E0018885
:102B900021F4F8410180018841F40041F5E7710911
:102BA000F20600D1491E48EA8121EEE7B4F8501040
:102BB000214401EB0010A0F804642A89B3B2204636
:102BC000696900F097F96869304468612969286A81
:102BD000884202D9801B286202E00646C5F8209090
:102BE000687810B1012822D029E0B4F85000297883
:102BF000204400EB011000F20C404EB13E2E0FD8E5
:102C00007108F20700D0491C07EA8121018016E013
:102C1000018821F4F8410180018841F40041F5E781
:102C20007109F20600D1491E48EA8121EEE7B4F8A5
:102C300050100819297800EB0110A0F80C646A897B
:102C4000B3B22046696900F055F933E02A7834F8C8
:102C5000220048F68F63184040EA0B0024F8220057
:102C6000B4F850002A78204400EB02108BB2A0F890
:102C700004342A89E5E7A0F804642A89B3B220461F
:102C8000696900F037F9687810B1012808D011E0BF
:102C9000297834F8210048F2C00200EA0A0006E070
:102CA000297834F821004CF2800200EA0A0010432F
:102CB00024F82100297834F8210048F6BF7210402A
:102CC00080F03000DFE0A9692869814202D9091A41
:102CD000A961B6E00846C5F81890B2E0088820F46B
:102CE000F8400880088840F400400BE03E2876D881
:102CF0004208C00700D0521C07EA822002E000BF51
:102D000048EA82200880B6E092B9B4F850002978E9
:102D1000204400EB0110296900F2044069B13E290A
:102D200013D84A08C90700D0521C07EA8221018043
:102D3000687888B1012832D03AE0018821F4F8415E
:102D40000180018841F40041F1E74A09C90600D138
:102D5000521E48EA8221EAE7B4F85000297820445C
:102D600000EB0110296900F20C4049B13E290FD84F
:102D70004A08C90700D0521C07EA8221018017E0E7
:102D8000018821F4F8410180018841F40041F5E710
:102D90004A09C90600D1521E48EA8221EEE7B4F87A
:102DA00050100819297800EB0110298AA0F80C149A
:102DB000E869B0B3297834F82100420401D542060D
:102DC00003D444F24002104255D134F8210048F2B5
:102DD000C00200EA0A00104324F821004BE03CE066
:102DE000A9692869814202D9091AA96102E0084645
:102DF000C5F818908AB9B4F850102A78214401EB2C
:102E0000021101F2044168B13E2813D84208C307F9
:102E100000D0521C07EA82220A80697889B1012910
:102E200021D028E00A8822F4F8420A800A8842F475
:102E30000042F1E74209C30600D1521E48EA82224D
:102E4000EAE7B4F850102A78214401EB021101F2AC
:102E50000C4100287FF44AAF40E74209C0067FF4E6
:102E60004FAF521E4CE7B4F8502011192A7801EBED
:102E70000211A1F80C04297834F821004BF68F7266
:102E8000104080F4405040EA0B0024F8210000205C
:102E9000B2E50021A0F844104FF43F41A0F84010E3
:102EA000002070470148FDF743BE00007008002075
:102EB000B0F844007047000010B500EB42005C0819
:102EC00000F5806009D000BF30F8042B01F8012B19
:102ED000120A01F8012B641EF6D1DA0701D000882E
:102EE000087010BD0020704711B98021A0F84C1067
:102EF0000020704710B55B1C00EB42005B0800F53A
:102F0000806009D011F8012B11F8014B42EA04222C
:102F100020F8042B5B1EF5D110BDFEE70907090E52
:102F2000002804DB00F1E02080F80014704700F076
:102F30000F0000F1E02080F8141D704702E008C87F
:102F4000121F08C1002AFAD170477047002001E023
:102F500001C1121F002AFBD170470000FDF7AAFA39
:102F6000FEF76AFCFEF780FAFEF7B8FA204C592605
:102F7000DFF880904FF4807804F580754E274FF489
:102F8000007A6420FDF780F9207831280ED160782E
:102F900059281ED04E28F4D1012241464846FDF75B
:102FA00075FA2F7002211448FDF756F9207832285F
:102FB000E7D16078592813D04E28E2D1012251463A
:102FC0004846FDF763FA6F7002210B48FDF744F99C
:102FD000D7E7002241464846FDF758FA2E70E1E750
:102FE000002251464846FDF751FA6E70ECE70000AA
:102FF0008C010020000C01408C0200200000000029
:103000000000000001020304060708092C30000834
:10301000000000208C01000094010008EC30000842
:103020008C010020540F00004C2F000881133D1C20
:103030001B086D041A79041AA1041ACD041A1D0480
:103040001A4904170403090412011402020216406B
:1030500083044057260201020301031A1A031315C1
:10306000021B080F041A0B041A3904192F118210BD
:103070005324F4130A0632022A401C1C0902435747
:103080001125C03209041B01020B1305241610017F
:103090000524011009010424020205240617010772
:1030A000058203081C1009048D320A1D0705010260
:1030B000432C070581070938442A40072A81071154
:1030C0002B0907440A3B04441BA919FC190413915A
:1030D0001A42081A530C139B181B08E104C11A91D9
:0C30E000181A85041A9D041A79040000D7
:04000005080000ED02
:00000001FF
